:100000000C94D3010C9404020C9404020C9404028A
:100010000C9404020C9404020C9404020C94040248
:100020000C9404020C9404020C9404020C94040238
:100030000C9404020C9404020C9404020C94040228
:100040000C9404020C9404020C9404020C94040218
:100050000C9404020C9404020C9404020C948D047D
:100060000C9404020C94F1100C94E1110C94040211
:100070000C9404020C9404020C9404020C940402E8
:100080000C9404020C9404020C9404020C940402D8
:100090000C9425110C9420120C9404020C9404026C
:1000A0000C9404020C9404020C9404020C940402B8
:1000B0000C9404020C9404020C9404020C940402A8
:1000C0000C9404020C9404020C9404020C94591134
:1000D0000C945F120C9404020C948D110C949E12DB
:1000E0000C9404021D02200213021702570224027C
:1000F00028022E02320236023C024002440257021B
:100100004A024E025202340339033E034803C1033C
:1001100052035A0362036C03760380038F0399032F
:10012000C103A303AD03B7030C946C030C94F52037
:100130000C948F030C94BC180C94D81C0C94F11ED6
:100140000C9453050C9439030C9436020C945A0306
:100150000C94D51C0C94221D0C9428020C94320291
:100160000C943D100C9441050C9468070C941702F4
:100170000C946C0F0C9489100C944A050C942F0D60
:100180000C945E050C94731C0C9444020C941D0298
:100190000C943E030C9486170C94251D0C9452026B
:1001A0000C9494100C944D050C944D100C94440533
:1001B0000C944A020C944E020C9413020C94C1034A
:1001C0000C9459050C9459080C94FB040C942E02C1
:1001D0000C94D7040C947A170C948D170C94760316
:1001E0000C94FF180C9461130C94AD030C94200232
:1001F0000C94DA190C944A200C94701C0C949D09F0
:100200000C94D21C0C942C1F0C9448030C9499034E
:100210000C946D1C0C9452030C9456050C94B7036B
:100220000C948F060C94C0110C94FC190C948A1732
:100230000C9483170C94A3030C9469100C94470539
:100240000C9424020C9440020C94AF080C947D177B
:100250000C9480170C94591C0C9450050C94281085
:100260000C943C020C949A070C9457020C94800353
:100270000C94C11F0C9462030C9421190C94340348
:1002800000002100240027002A002D003000330048
:1002900001010000040107010A01000022002500FD
:1002A00028002B002E00310034000201000005015F
:1002B00008010B01000020002300260029002C006B
:1002C0002F003200000100000301060109010505AD
:1002D0000505070508080808020202020A0A0808BC
:1002E00004040404010101010101010103030303EA
:1002F00003030303040707070C0C0C0C0C0C0C0C79
:100300000202020206060606060606060B0B0B0B89
:100310000B0B0B0B010210202008081020401020AE
:1003200040800201020108040201010204081020B9
:1003300040808040201008040201800402018040B7
:100340002010080402010804020101020408102020
:10035000408001020408102040800000090A0208C1
:100360000B0C0D0706030401000000000000000054
:10037000000000000000000000000000000000007D
:1003800000000000000011100F000000000000003D
:10039000000000000000000000000000000000005D
:1003A0006C0F6113281011241FBECFEFD1E2DEBF06
:1003B000CDBF00E00CBF15E0A0E0B2E0E8E0F8E45B
:1003C00000E00BBF02C007900D92A43CB107D9F723
:1003D00027E1A4ECB5E001C01D92A335B207E1F717
:1003E00011E0C2EDD1E000E006C021970109802FA5
:1003F000FE010E94DB23C03DD10780E00807A9F77A
:100400000E9430100C9423230C94000090E0FC0117
:100410003197E131F10508F04AC08827EE58FF4FC7
:100420008F4F0C94DB23809180008F7703C08091E5
:1004300080008F7D80938000089584B58F7702C0FF
:1004400084B58F7D84BD08958091B0008F7703C0FF
:100450008091B0008F7D8093B000089580919000CE
:100460008F7707C0809190008F7D03C080919000AE
:10047000877F8093900008958091A0008F7707C0B8
:100480008091A0008F7D03C08091A000877F809322
:10049000A0000895809120018F7707C080912001EE
:1004A0008F7D03C080912001877F80932001089574
:1004B000863308F0865390917B00282F2870977F11
:1004C000922B90937B008770806480937C00809156
:1004D0007A00806480937A0080917A0086FDFCCF58
:1004E000809178002091790090E0922B0895CF932D
:1004F000DF93282F30E0F901E65AFC4F8491F9018F
:10050000EC5EFC4FD491F901E253FD4FC491CC2332
:1005100091F081110E940602EC2FF0E0EE0FFF1F18
:10052000EC54FD4FA591B491EC91ED2381E090E066
:1005300021F480E002C080E090E0DF91CF91089547
:100540001F93CF93DF93282F30E0F901E65AFC4F39
:100550008491F901EC5EFC4FD491F901E253FD4F17
:10056000C491CC23C1F0162F81110E940602EC2FFA
:10057000F0E0EE0FFF1FE656FD4FA591B4919FB737
:10058000F894111104C08C91D095D82302C0EC913D
:10059000DE2BDC939FBFDF91CF911F910895CF9306
:1005A000DF9390E0FC01EC5EFC4F2491FC01E253F0
:1005B000FD4F8491882361F190E0880F991FFC0121
:1005C000E058FD4FC591D491FC01E656FD4FA59131
:1005D000B491611109C09FB7F89488812095822356
:1005E0008883EC912E230BC0623061F49FB7F8949E
:1005F0008881322F309583238883EC912E2B2C9386
:100600009FBF06C08FB7F894E8812E2B28838FBF39
:10061000DF91CF9108951F93CF93DF93182FEB01B4
:1006200061E00E94CF02209711F460E004C0CF3F48
:10063000D10539F461E0812FDF91CF911F910C94A6
:10064000A002E12FF0E0E65AFC4FE4918E2F90E0FB
:10065000FC013197E131F10508F093C08827ED578F
:10066000FF4F8F4F0C94DB2384B5806884BDC7BDDA
:100670008DC084B5806284BDC8BD88C08091800073
:10068000806880938000D0938900C09388007EC0EA
:1006900080918000806280938000D0938B00C09313
:1006A0008A0074C08091B00080688093B000C093CD
:1006B000B3006CC08091B00080628093B000C093A2
:1006C000B40064C080919000806880939000D093C3
:1006D0009900C09398005AC08091900080628093E6
:1006E0009000D0939B00C0939A0050C080919000DE
:1006F000886080939000D0939D00C0939C0046C07A
:100700008091A00080688093A0008091A0008F7BE2
:100710008093A000D093A900C093A80037C0809117
:10072000A00080628093A000D093AB00C093AA0089
:100730002DC08091A00088608093A000D093AD0070
:10074000C093AC0023C08091200180688093200179
:10075000D0932901C093280119C0809120018062A3
:1007600080932001D0932B01C0932A010FC0809168
:100770002001886080932001D0932D01C0932C012B
:1007800005C0C038D1050CF055CF4FCFDF91CF91C8
:100790001F910895789484B5826084BD84B581608A
:1007A00084BD85B5826085BD85B5816085BDEEE679
:1007B000F0E0808181608083E1E8F0E01082808158
:1007C00082608083808181608083E0E8F0E08081C6
:1007D00081608083E1EBF0E0808184608083E0EBE6
:1007E000F0E0808181608083E1E9F0E080818260D7
:1007F0008083808181608083E0E9F0E08081816096
:100800008083E1EAF0E08081826080838081816082
:100810008083E0EAF0E0808181608083E1E2F1E0C2
:10082000808182608083808181608083E0E2F1E06A
:10083000808181608083EAE7F0E08081846080834A
:1008400080818260808380818160808380818068F4
:1008500080831092C1000895019739F0880F991F85
:10086000880F991F02970197F1F708953FB7F89401
:100870008091C9059091CA05A091CB05B091CC0596
:1008800026B5A89B05C02F3F19F00196A11DB11DEB
:100890003FBFBA2FA92F982F8827820F911DA11D26
:1008A000B11DBC01CD0142E0660F771F881F991F63
:1008B0004A95D1F70895CF92DF92EF92FF92CF93AE
:1008C000DF936B017C010E943604EB01C114D1045B
:1008D000E104F10479F00E9436046C1B7D0B683E44
:1008E0007340A0F381E0C81AD108E108F108C851AB
:1008F000DC4FECCFDF91CF91FF90EF90DF90CF9066
:1009000008952FB7F8946091C5057091C605809140
:10091000C7059091C8052FBF08951F920F920FB67B
:100920000F9211242F933F938F939F93AF93BF9375
:100930008091C5059091C605A091C705B091C805E5
:100940003091C40523E0230F2D3720F40196A11D1B
:10095000B11D05C026E8230F0296A11DB11D2093ED
:10096000C4058093C5059093C605A093C705B093B1
:10097000C8058091C9059091CA05A091CB05B09199
:10098000CC050196A11DB11D8093C9059093CA05A0
:10099000A093CB05B093CC05BF91AF919F918F9160
:1009A0003F912F910F900FBE0F901F901895DC0173
:1009B000FB0112968C911297808313968C9113975A
:1009C000818314968C911497828315968C91159738
:1009D000838316968C911697848317968C9117971C
:1009E000858318968C911897868319968C918783A6
:1009F00088E090E00895FC01DB014C9150E060E05C
:100A000070E0428353836483758311968C911197B0
:100A1000582B428353836483758312968C9112976B
:100A2000682B428353836483758313968C91139749
:100A3000782B428353836483758314964C91149767
:100A400050E060E070E046835783608771871596B9
:100A50008C911597582B468357836087718716961C
:100A60008C911697682B46835783608771871796FA
:100A70008C91782B468357836087718788E090E05C
:100A8000089586E092E0089584E192E0089585E378
:100A900092E008958EE492E008958FE692E0089542
:100AA00082E892E008958FE393E0089583EA92E06C
:100AB00008958A579B4FFC0180810895EF92FF9221
:100AC0000F931F93CF93DF9300D01F921F92CDB748
:100AD000DEB7643671053CF0FC01EA57FB4F20811C
:100AE000222309F46FC0DA017B018C01BC01615E35
:100AF0007D4FED91FC910190F081E02DCA01199597
:100B0000B801685E7D4F2FEFDB012C93F801E75EA3
:100B1000FD4F2EEF2083319680833196908331965E
:100B2000292F280F209520833196E0821696FC927B
:100B300045E050E020E030E07C01B6E0EB0EF11C37
:100B4000E416F50634F0A1912A0F311D4F5F5F4F77
:100B5000F7CF7C01E8E0EE0EF11C800F911FFC0145
:100B6000E15EFD4F20952083F1E0EF16F2E0FF06F5
:100B70007CF4D80112968D919C911397DC01ED9134
:100B8000FC910280F381E02DA7011995C7011CC0DB
:100B900081E293E09A83898383E08B8384EC92E003
:100BA0009D838C83D801ED91FC910190F081E02D23
:100BB000AE014F5F5F4F67E070E0C80119958FEF9E
:100BC0009FEF02C080E090E00F900F900F900F9089
:100BD0000F90DF91CF911F910F91FF90EF900895AB
:100BE0000F934091F90F5091FA0F6091FB0F7091A4
:100BF000FC0F8091F70F9091F80F0E94DD12109278
:100C00007214109271141092741410927314109242
:100C10007814109277141092761410927514EFE3F2
:100C2000F4E180E090E021913191232B81F4FC01EB
:100C3000EE0FFF1FE15CFB4E25ED3AE03183208390
:100C40008C599F4F9093D80A8093D70A04C001967D
:100C50008931910541F7EDE0F4E180E090E02191E8
:100C60003191232BB1F4FC01EE0FFF1FE35FFB4E2C
:100C70002BEC3AE03183208383589F4F9093D00A26
:100C80008093CF0A85EF9FE09093D20A8093D10A98
:100C900004C001968931910511F742E061E085EDCC
:100CA0009AE00E94901705E026E047E060E085EDBD
:100CB0009AE00E94BB1B23E044E061E085ED9AE0EE
:100CC0000E94BB1B85ED9AE00E94971748E06DEFEC
:100CD00072E081EB9AE00E943B148DEC95E00F915D
:100CE0000C94A51ECF92DF92EF92FF9220E030E0AD
:100CF0006A017B01022E04C0F694E794D794C7944E
:100D00000A94D2F7FC01C192CF01285F3F4F2032F5
:100D1000310571F7FF90EF90DF90CF9008954F92DB
:100D20005F926F927F92AF92BF92CF92DF92EF92DB
:100D3000FF920F931F93CF93DF93EC018B018A8176
:100D4000FB0180838B8181838C8182838D8183836E
:100D5000DB0140E050E0BA01E4E0F0E01496CA8024
:100D6000DB80EC80FD80CF0104964C155D056E059F
:100D70007F05C8F42A853B85E20FF31F3497D080A6
:100D8000F18032812381DC921196FC9211971296A8
:100D90003C93129713962C931397FC014F5F5F4F70
:100DA0006F4F7F4FDBCF5F01A00EB11E2C85F50189
:100DB00020832D8521832E8522832F852383D501B2
:100DC00040E050E0BA01CC84DD84EE84FF849C01D5
:100DD0002C5F3F4F4C155D056E057F05F8F4CD0186
:100DE0008A199B09EC88FD888E0D9F1DFC01D0801F
:100DF000E180F28083811496DC9214971596EC9230
:100E000015971696FC92169717968C931797C9010B
:100E10004F5F5F4F6F4F7F4F1496D5CFF801E80FAC
:100E2000F91F8E8980838F898183888D8283898D44
:100E300083837901A12CB12C412C512C32018E8954
:100E40009F89A88DB98D481659066A067B0680F5DC
:100E5000EC8DFD8DEA0DFB1DA081B181FD0101909E
:100E60000020E9F731976F01CA1ADB0AA60160E09A
:100E700070E0C8018E0D9F1D0E947206F4E0EF0E17
:100E8000F11CEC8DFD8DEA0DFB1D60817181A601C9
:100E9000C8018E0D9F1D0E942623EC0CFD1C8FEFB8
:100EA000481A580A680A780AE2E0AE0EB11CC7CFA9
:100EB000C701DF91CF911F910F91FF90EF90DF90CD
:100EC000CF90BF90AF907F906F905F904F900895BC
:100ED000EF92FF920F931F93CF93DF938C017B01CF
:100EE000DC0112962C911297FB012193CF011396EE
:100EF000ED91FC911497EF0109900020E9F72197FB
:100F0000CE1BDF0BAE0160E070E00E947206D801DC
:100F100013966D917C911497AE01C70105960E94BE
:100F20002623CE010596DF91CF911F910F91FF905F
:100F3000EF900895CF92DF92EF92FF920F931F935D
:100F4000CF93DF937C018B01DC0112968C91129779
:100F5000FB01808313968C91139781831496ED91F6
:100F6000FC911597EF0109900020E9F72197CE1B1E
:100F7000DF0BAE0160E070E0C80102960E947206CD
:100F8000D70114966D917C911597AE01C801069614
:100F90000E942623CE010696F701A681B781FD01A6
:100FA00001900020E9F731976F01CA1ADB0AA60108
:100FB00060E070E0800F911F0E9472062A96D701B0
:100FC00016966D917C911797A601C8018C0F9D1FF5
:100FD0000E942623CC0DDD1DD7011896ED91FC91C2
:100FE0001997DF010D900020E9F711976D01CE1AD6
:100FF000DF0AA60160E070E0C8018C0F9D1F0E940F
:1010000072062496F70160857185A601C8018C0FD0
:101010009D1F0E942623C6018C0F9D1FD7011A9683
:101020006C911A971B964C911B971C963C911C97A0
:101030001D962C91F801E80FF91F608341833283DC
:1010400023830496DF91CF911F910F91FF90EF9032
:10105000DF90CF900895CF92DF92EF92FF92FC0144
:101060001082118212821382DB0120E030E04D9168
:1010700050E0022E02C0440F551F0A94E2F7052EDD
:10108000000C660B770BC080D180E280F3804C2986
:101090005D296E297F294083518362837383285F92
:1010A0003F4F2032310519F7FF90EF90DF90CF903E
:1010B00008954F925F926F927F928F929F92AF921C
:1010C000BF92EF92FF920F931F93CF93DF9300D0C5
:1010D0001F92CDB7DEB77C018B01FB018191BF016F
:1010E000F7018283CE0101960E942B0889819A81A3
:1010F000AB81BC814C015D01F5E08F0E911CA11C00
:10110000B11CA8014C5F5F4FFA0125E030E02901D6
:10111000612C712C481459046A047B0428F4618101
:1011200061932F5F3F4FF3CFF801E80FF91F14824F
:10113000F7015483438305960F900F900F900F9003
:10114000DF91CF911F910F91FF90EF90BF90AF90E3
:101150009F908F907F906F905F904F9008954F92E7
:101160005F926F927F928F929F92AF92BF92CF9237
:10117000DF92EF92FF920F931F93CF93DF93CDB740
:10118000DEB72C970FB6F894DEBF0FBECDBF7C0143
:101190008B01DB018C9190E0F701938382831196A0
:1011A0002C91922B938382836E5F7F4FCE010996A1
:1011B0000E942B0889849A84AB84BC842401350165
:1011C000F6E04F0E511C611C711C98012B5F3F4FC4
:1011D000F90186E090E0AC0160E070E0441555054F
:1011E0006605770520F4418141930196F4CFF8011B
:1011F000E80DF91D1582D70115963C932E9314978F
:10120000B4016A5F7F4F600F711FCE0105960E9487
:101210002B08BAE08B0E911C4D805E806F80788425
:10122000A401092C000C660B770B440D551D661D9F
:10123000771DD801A80DB91DCD01801B910B5C0154
:10124000C12CD12CA416B506C606D70628F48D915C
:10125000FD0132978083F0CF5401A40CB51CB80176
:101260006A0D7B1DFB0131971082C4010197800F2D
:10127000911FF70197838683CE0101960E942B0868
:1012800095012C5F3F4F89819A81AB81BC812901F7
:10129000032E000C66087708480E591E6A1E7B1E36
:1012A000F5013396E00FF11FA9014A01A12CB12CE1
:1012B00084149504A604B70428F4618161934F5FF8
:1012C0005F4FF3CF820F931FF801E80FF91FDF0183
:1012D00011971C9221503109020F131FD701199643
:1012E0001C930E9318972181428150E060E070E0DA
:1012F000BA0155274427522B2081422B2381722B80
:10130000F701428753876487758704962C960FB63A
:10131000F894DEBF0FBECDBFDF91CF911F910F912B
:10132000FF90EF90DF90CF90BF90AF909F908F9005
:101330007F906F905F904F9008952F923F924F92C1
:101340005F926F927F928F929F92AF92BF92CF9255
:10135000DF92EF92FF920F931F93CF93DF93CDB75E
:10136000DEB760970FB6F894DEBF0FBECDBF8C011D
:101370006B01DB018D909D90AD90BC90FC01828152
:101380009381A481B58188159905AA05BB0570F4E0
:10139000B401660F771F660F771F828593850E94C1
:1013A0003E22D8011B969C938E931A97F801828255
:1013B0009382A482B5829601812C912C540144E041
:1013C00050E0B8016A5F7F4F2C5F3F4FF801828188
:1013D0009381A481B581FA0134961F01881699067C
:1013E000AA06BB0650F5D9011196FC9011971296EA
:1013F0008C9190E0A0E0B0E0DC01992788279F293C
:10140000F901F0808F29F380BF29F8018683978343
:10141000A087B187DA01A101149782859385A80F6F
:10142000B91F84E0FB0101900D928A95E1F7FFEF6F
:101430008F1A9F0AAF0ABF0AC7CF4601840E951EB6
:10144000D4018C9111969C91119712964C90129701
:10145000512C612C712C320155244424592A482ADC
:1014600013968C91782A5F01F80184859585A6856D
:10147000B78584159505A605B70570F4B201660F0A
:10148000771F660F771F848995890E943E22D801B5
:1014900055969C938E935497F8014486558666869C
:1014A0007786C401412C512C32019801205F3F4FB7
:1014B000D8011C964D915D916D917C911F97F5011E
:1014C0003496441655066606770698F5DC0115969F
:1014D000FC90159716964C91169750E060E070E0DE
:1014E000BA01552744275F291496FC9014974F2979
:1014F0001796FC907F29D80150964D935D936D937C
:101500007C9353975F01AC014819590954960D908B
:10151000BC91A02DA40FB51F44E0F90101900D92DC
:101520004A95E1F7BFEF4B1A5B0A6B0A7B0A0496F8
:10153000BFCFD601AA0DBB1D8C9111969C9111971E
:1015400012968C901297912CA12CB12C54019924B5
:101550008824992A882A13968C91B82A7F01F80149
:1015600086899789A08DB18D88159905AA05BB0537
:1015700060F4B401660F771F848D958D0E943E2222
:10158000D8015D969C938E935C97F801868A978A22
:10159000A08EB18E212C312C812C912C54019801DC
:1015A000265E3F4F3A872987F80186899789A08D63
:1015B000B18D88169906AA06BB0608F05FC0B60171
:1015C0006E0D7F1DCE0101960E942B0897012C5FA6
:1015D0003F4F388B2F8749815A816B817C81C901AC
:1015E000330FAA0BBB0B2C013D01440E551E661E8A
:1015F000771E4B865C866D867E8623E0E20EF11CAC
:10160000F601EE0DFF1D2F853889C901A0E0B0E07D
:101610004B845C846D847E8484159505A605B7058E
:1016200028F4A181A1932F5F3F4FEFCF6F8478887B
:10163000460D571DF601E40FF51F31971082C301C7
:1016400001978C0D9D1DD8015B969C938E935A97A4
:101650007A015C96ED91FC915D97E20DF31DA985F1
:10166000BA858D919C9191838083BFEF8B1A9B0AE1
:10167000AB0ABB0AE2E02E0E311C96CFC701609682
:101680000FB6F894DEBF0FBECDBFDF91CF911F9193
:101690000F91FF90EF90DF90CF90BF90AF909F9011
:1016A0008F907F906F905F904F903F902F90089514
:1016B0000F931F93CF93DF93CDB7DEB72A970FB663
:1016C000F894DEBF0FBECDBF8C0189E093E09A8312
:1016D00089831B821C821D821E821F8218861986A6
:1016E0001A86D801ED91FC910190F081E02DAE01B8
:1016F0004F5F5F4F6AE070E0C80119950E94810456
:10170000F80160877187828793872A960FB6F894CD
:10171000DEBF0FBECDBFDF91CF911F910F91089516
:101720004F925F926F927F92AF92BF92CF92DF9271
:10173000EF92FF920F931F93CF93DF93CDB7DEB756
:101740002E970FB6F894DEBF0FBECDBF8C0185E19A
:1017500093E09A8389831C821B828CEF92E09E83A4
:101760008D8398878F839A8789871B861C861D8621
:101770001E86680188EEC81A8BEFD80A7801A6EB9E
:10178000EA1AABEFFA0A412C92E0592E612C712C27
:10179000D601ED91FC913097A9F1848195819C83CC
:1017A0008B83808191819E838D8382819381DC01F3
:1017B000ED91FC910480F581E02D199598878F8338
:1017C000D601ED91FC9182819381DC01ED91FC9138
:1017D0000680F781E02D19959A8789874B865C866C
:1017E0006D867E86D601ED91FC9160857185D8016C
:1017F000ED91FC910190F081E02DAE014F5F5F4FC4
:10180000C8011995B2E0CB0ED11CCE14DF0409F04B
:10181000BFCF6801E4E8CE1AEBEFDE0A412C82E08C
:10182000582E612C712CF701A081B1811097E1F144
:1018300012968D919C9113979C838B8314968D9116
:101840009C9115979E838D83ED91FC911197048057
:10185000F581E02DCD01199598878F83D7018D9162
:101860009C91DC01ED91FC910680F781E02D1995AA
:101870009A8789874B865C866D867E86D801ED9136
:10188000FC91A080B180F70180819181DC01ED9114
:10189000FC910280F381E02D1995AE014F5F5F4FFF
:1018A000BC01C801F5011995F2E0EF0EF11CCE1450
:1018B000DF0409F0B8CFF801EA57FB4F81E08083DD
:1018C0002E960FB6F894DEBF0FBECDBFDF91CF913D
:1018D0001F910F91FF90EF90DF90CF90BF90AF904E
:1018E0007F906F905F904F9008958F929F92AF92EC
:1018F000BF92CF92DF92EF92FF920F931F93CF93FD
:10190000DF93CDB7DEB72A970FB6F894DEBF0FBED0
:10191000CDBF8C015B0189E093E09A8389831B82B0
:101920001C821D821E821F82188619861A860E94BA
:101930008104F801C084D184E284F3849B01AC016A
:101940002C193D094E095F0969017A01B501CE01E3
:1019500001960E94FB0488EE882E83E0982EA12C2D
:10196000B12CC701B601A50194010E94AE23CB8022
:10197000DC80ED80FE80C20ED31EE41EF51ECB82FD
:10198000DC82ED82FE829B01AC0160E472E48FE0B8
:1019900090E00E947623CF80D884E984FA84DC0129
:1019A000CB018C0D9D1DAE1DBF1D8F839887A98710
:1019B000BA870E948104CB80DC80ED80FE8031E01C
:1019C000C31AD108E108F108A50194010E94AE23D1
:1019D000C21AD30AE40AF50AF801C486D586E68657
:1019E000F786CF80D884E984FA84F6E3DF1AF5E637
:1019F000EF0AF4ECFF0A9B01AC0160E472E48FE0B3
:101A000090E00E947623C61AD70AE80AF90AF8017C
:101A1000C08AD18AE28AF38AB801605F7F4FC80129
:101A20000C960E94C7200E948104F801E557FB4FE5
:101A300060837183828393832A960FB6F894DEBF06
:101A40000FBECDBFDF91CF911F910F91FF90EF900F
:101A5000DF90CF90BF90AF909F908F9008952F927E
:101A60003F924F925F926F927F928F929F92AF922E
:101A7000BF92CF92DF92EF92FF920F931F93CF937B
:101A8000DF93CDB7DEB760970FB6F894DEBF0FBE19
:101A9000CDBF988B8F870E9481044B015C012F85FD
:101AA000388925573B4F3E832D83F90180819181F1
:101AB000A281B381A5019401281B390B4A0B5B0B52
:101AC000DA01C901893F9A42A105B10528F0EF85E5
:101AD000F889EA57FB4F10820F85188904581B4F6D
:101AE000D8018D919C91892B81F0EF85F889E15780
:101AF000FB4F80819181A281B38188159905AA0548
:101B0000BB0518F4F801118210826F847888FCE715
:101B10006F1AFBEF7F0A2F85388920583B4F3A8395
:101B20002983CF84D88838E1C30ED11C4F855889CA
:101B30004A575B4F58874F838F8598898C569B4FA8
:101B40009A878987AF85B889AD56BB4FBC87AB876D
:101B5000EF84F888B2E8EB1ABBEFFB0AEF85F8894F
:101B6000EE57FB4FFC83EB832F85388921573B4F82
:101B70003E872D871401250134E1230E311C411CC1
:101B8000511CEF85F88984899589A689B789892BA5
:101B90008A2B8B2B89F4AF85B88912968D919C91F5
:101BA0001397DC01ED91FC910680F781E02D1995EA
:101BB0009C0197FF15C03CC10E948104DC01CB0150
:101BC00088199909AA09BB09EF85F88924893589FB
:101BD00046895789281739074A075B07E0F650C13D
:101BE000D3018D919C911197820F931F8D939C939C
:101BF000F8014081518147305105D9F4AB81BC8156
:101C00008D919C911197AC014F5F5F4F4D935C9309
:101C1000EF85F889E80FF91F208FF7018081918106
:101C2000019791838083892B09F0ABCF88E090E006
:101C30006FC04115510529F52F3F310569F481E049
:101C400090E0F80191838083AD85BE852D923D9211
:101C50004D925C92139795CF0E948104DC01CB01D9
:101C600088199909AA09BB0989389341A105B105C9
:101C700008F487CF2F8538892A573B4FD9011C920A
:101C8000FFC04130510591F42E3F310519F482E037
:101C900090E02EC011821082EF81F8858081811141
:101CA00070CF8F8598890E94580B6BCF42305105B9
:101CB00081F4D7012D933C93EB81FC81118210823A
:101CC00083E090E0D8018D939C93F30131832083CE
:101CD00058CF4330510581F4322F2227D7018D91FF
:101CE0009C911197280F391F2D933C9384E090E02D
:101CF000F8019183808345CF4430510589F460E039
:101D000071E00E949A238F3F910531F485E090E0C5
:101D1000D8018D939C9335CFF8011182108231CF79
:101D20004530510569F4A981BA812D933C9346E071
:101D300050E0F80151834083D3012D933C9321CF90
:101D40004630510599F4322F2227E981FA818081AA
:101D50009181280F391F31832083E7E0F0E0D8011B
:101D6000ED93FC93D7018D919C915DCF4830510547
:101D700009F007CFF8011182108260E071E00E9443
:101D80009A238F3F910509F0FCCEA981BA818D91EC
:101D90009C910097C9F48F8598890E94580B8F8574
:101DA00098890E94900BEF85F889E957FB4F808254
:101DB0009182A282B382ED81FE8180829182A28291
:101DC000B3828FEF9FEF61C08A30910531F4B60185
:101DD0008F8598890E94750CD4CE8630910551F478
:101DE000B60189859A850E949D0981E0AB85BC85F5
:101DF0008C93C7CE8B30910521F4EF81F88510824A
:101E0000C0CEFC01EF53FE4FEE0FFF1F2F85388928
:101E1000E20FF31F80819181009709F4B2CEDC01BB
:101E2000ED91FC910190F081E02DB6011995A9CEBC
:101E3000EF85F889EA57FB4F8081882321F10F85D0
:101E4000188909571B4FF80180819181A281B381C4
:101E5000A5019401281B390B4A0B5B0BDA01C90160
:101E6000853C9940A105B10570F08F8598890E9445
:101E7000580BD8018D929D92AD92BC92139703C0DE
:101E80008EEF9FEF02C080E090E060960FB6F8946E
:101E9000DEBF0FBECDBFDF91CF911F910F91FF909D
:101EA000EF90DF90CF90BF90AF909F908F907F90FA
:101EB0006F905F904F903F902F9008958DEC95E03C
:101EC0000E94BD1E85EF9FE00E942F0D64E670E02A
:101ED00080E090E00C945B04E5EFFFE089E393E0A1
:101EE000918380838DE095E19383828380E091EEFE
:101EF000A0E0B0E084839583A683B7831086118623
:101F0000128613861486158616861786108A118AFD
:101F1000128A138A148A158A168A178A80E092E038
:101F2000EDE0F0E1DF019C011D9221503040E1F72E
:101F3000EDE0F2E1DF019C011D9221503040E1F71C
:101F400082E3EDE0F4E1DF01282F1D922A95E9F705
:101F5000EFE3F4E1DF011D928A95E9F71092721424
:101F600010927114109274141092731410927614CB
:101F700010927514109278141092771410927A14AB
:101F80001092791410927B1410927C1410927D148C
:101F900010927E1410927F1410928014109281146B
:101FA000109282141092831410928414109285144B
:101FB0001092861410928714109288148DE293E088
:101FC00090938A148093891410928B1410928C141D
:101FD00010928D1410928E1410928F1410929014EF
:101FE00010929114109292141092941410929314CF
:101FF00010929514109296141092971410929814AF
:102000001092991410929A1410929B1410929C148E
:1020100010929E1410929D1410929F141092A0146E
:102020001092A1141092A2141092A4141092A3144E
:102030001092A6141092A51465EF7FE085ED9AE04A
:102040000E944A1A65EF7FE08DEC95E00C94281D04
:1020500081EB9AE00E94521785ED9AE00C94B51B33
:102060000E94CA030E94F005C0ECD1E10E945E0FFD
:102070002097E1F30E94C011F9CFFC01248535853A
:10208000F901E05CFF4F808191813296208131819E
:10209000821B930B8F7399270895DC011C96ED9199
:1020A000FC911D97DF01A05CBF4F2D913C911197D2
:1020B00012968D919C9111972817390739F08D91BF
:1020C0009C91E80FF91F808190E008958FEF9FEFBA
:1020D0000895FC01A485B585FD01E05CFF4F2081DA
:1020E00031813296808191812817390779F080817A
:1020F0009181A80FB91F8C91208131812F5F3F4FB3
:102100002F7333273183208390E008958FEF9FEF63
:102110000895FC0181A1882329F0A489B5898C91B7
:1021200086FFFBCF11A208950F931F93CF93DF93E8
:10213000FC01A685B7858D01005C1F4FE8018881F1
:10214000998101968F739927AD014E5B5F4FEA012C
:102150002881398128173907D1F3E801288139818D
:10216000A20FB31F6C93A685B785A05CBF4F1196D5
:102170009C938E93A689B7892C9181E090E0078C7F
:1021800002C0880F991F0A94E2F7822B8C9381E09A
:1021900081A30488F589E02D80818064808381E0BB
:1021A00090E0DF91CF911F910F910895FB01E05CCA
:1021B000FF4F20813181DB01AE5BBF4F4D915C91C0
:1021C0002F5F3F4F2F7333274217530741F0408152
:1021D0005181DB01A40FB51F8C93318320830895B7
:1021E00008951F920F920FB60F9211240BB60F9203
:1021F0002F933F934F935F936F937F938F939F930F
:10220000AF93BF93EF93FF938091C00082FD07C00F
:102210008091C6006BE077E10E94D61002C08091E9
:10222000C600FF91EF91BF91AF919F918F917F91E8
:102230006F915F914F913F912F910F900BBE0F9037
:102240000FBE0F901F90189508951F920F920FB612
:102250000F9211240BB60F922F933F934F935F93DE
:102260006F937F938F939F93AF93BF93EF93FF935E
:102270008091C80082FD07C08091CE0063E876E1BE
:102280000E94D61002C08091CE00FF91EF91BF91C5
:10229000AF919F918F917F916F915F914F913F91FE
:1022A0002F910F900BBE0F900FBE0F901F9018959F
:1022B00008951F920F920FB60F9211240BB60F9232
:1022C0002F933F934F935F936F937F938F939F933E
:1022D000AF93BF93EF93FF938091D00082FD07C02F
:1022E0008091D6006BEF75E10E94D61002C08091FC
:1022F000D600FF91EF91BF91AF919F918F917F9108
:102300006F915F914F913F912F910F900BBE0F9066
:102310000FBE0F901F90189508951F920F920FB641
:102320000F9211240BB60F922F933F934F935F930D
:102330006F937F938F939F93AF93BF93EF93FF938D
:102340008091300182FD07C08091360163E775E11D
:102350000E94D61002C080913601FF91EF91BF918B
:10236000AF919F918F917F916F915F914F913F912D
:102370002F910F900BBE0F900FBE0F901F901895CE
:102380008DE095E10E943D10892B11F00E94F01024
:102390008BEE94E10E943D10892B11F00E942411D4
:1023A00089EC94E10E943D10892B11F00E94581194
:1023B00087EA94E10E943D10892B11F00C948C1156
:1023C00008951F920F920FB60F9211240BB60F9221
:1023D0002F933F938F939F93EF93FF932091071732
:1023E000309108178091091790910A17281739071B
:1023F00031F48091C1008F7D8093C10014C0E091C1
:102400000917F0910A17E953F94E208180910917B5
:1024100090910A1701968F73992790930A178093CA
:1024200009172093C600FF91EF919F918F913F91E3
:102430002F910F900BBE0F900FBE0F901F9018950D
:102440001F920F920FB60F9211240BB60F922F937B
:102450003F938F939F93EF93FF9320917F1630913B
:10246000801680918116909182162817390731F4D1
:102470008091C9008F7D8093C90014C0E0918116BE
:10248000F0918216E15CF94E208180918116909145
:10249000821601968F7399279093821680938116E6
:1024A0002093CE00FF91EF919F918F913F912F91BB
:1024B0000F900BBE0F900FBE0F901F9018951F929C
:1024C0000F920FB60F9211240BB60F922F933F93DA
:1024D0008F939F93EF93FF932091F7153091F81509
:1024E0008091F9159091FA152817390731F48091E8
:1024F000D1008F7D8093D10014C0E091F915F09147
:10250000FA15E954FA4E20818091F9159091FA1547
:1025100001968F7399279093FA158093F91520935C
:10252000D600FF91EF919F918F913F912F910F9046
:102530000BBE0F900FBE0F901F9018951F920F9219
:102540000FB60F9211240BB60F922F933F938F93D8
:102550009F93EF93FF9320916F15309170158091A9
:102560007115909172152817390731F48091310156
:102570008F7D8093310114C0E0917115F091721537
:10258000E15DFA4E2081809171159091721501964E
:102590008F7399279093721580937115209336014C
:1025A000FF91EF919F918F913F912F910F900BBED3
:1025B0000F900FBE0F901F901895CF92DF92EF9261
:1025C000FF92CF93DF93EC016A017B014115514EDD
:1025D0006105710509F1EC89FD8981E090E008A0B1
:1025E00002C0880F991F0A94E2F7808360E079E0C7
:1025F0008DE390E0A70196010E94AE23DA01C901A4
:102600000197A109B109B695A795979587959C0162
:10261000211580E13807A8F0EC89FD89108260E877
:1026200074E88EE190E0A70196010E94AE23DA01E2
:10263000C9010197A109B109B695A7959795879505
:102640009C01E889F9893083EA89FB89208319A2F2
:10265000EE89FF89408181E090E09C010C8C02C0F2
:10266000220F331F0A94E2F7242B2083EE89FF897F
:1026700040819C010D8C02C0220F331F0A94E2F7A7
:10268000242B2083EE89FF8940819C010E8C02C09F
:10269000220F331F0A94E2F7242B2083EE89FF894F
:1026A00020810F8C02C0880F991F0A94E2F7809551
:1026B00082238083DF91CF91FF90EF90DF90CF90C6
:1026C0000895CF92DF92EF92FF92EDE0F5E1138251
:1026D000128288EEC82E83E0D82EE12CF12CC48221
:1026E000D582E682F7826FE573E0718360838BE0C9
:1026F00097E19587848787EC96E19787868785ECB5
:1027000090E0918B808B84EC90E0938B828B80ECBB
:1027100090E0958B848B81EC90E0978B868B82EC9C
:1027200090E0918F808F86EC90E0938F828F44E0D1
:10273000448F33E0358F27E0268F95E0978F81E037
:1027400080A3EBEEF4E113821282C482D582E6828A
:10275000F78271836083A3E8B6E1B587A487AFE30E
:10276000B6E1B787A687ADECB0E0B18BA08BACEC3F
:10277000B0E0B38BA28BA8ECB0E0B58BA48BA9EC36
:10278000B0E0B78BA68BAAECB0E0B18FA08FAEEC17
:10279000B0E0B38FA28F448F358F268F978F80A3A1
:1027A000E9ECF4E113821282C482D582E682F782D8
:1027B00071836083ABEFB5E1B587A487A7EBB5E183
:1027C000B787A687A5EDB0E0B18BA08BA4EDB0E0F4
:1027D000B38BA28BA0EDB0E0B58BA48BA1EDB0E0E4
:1027E000B78BA68BA2EDB0E0B18FA08FA6EDB0E0C5
:1027F000B38FA28F448F358F268F978F80A3E7EA00
:10280000F4E113821282C482D582E682F782718358
:10281000608363E775E1758764876FE275E17787A9
:10282000668765E371E0718B608B64E371E0738BA5
:10283000628B60E371E0758B648B61E371E0778B91
:10284000668B62E371E0718F608F66E371E0738F76
:10285000628F448F358F268F978F80A3FF90EF90E4
:10286000DF90CF900895FC0181E08287868597856F
:10287000918B808B0895DF92EF92FF920F931F93BD
:10288000CF93DF93EC01D62E072F142F403208F0A0
:102890001FE1EB84FC84612F70E0C7010E943E229F
:1028A0009C878B87892B51F4C701DF91CF911F91B2
:1028B0000F91FF90EF90DF900C94B521ED2DF02F4C
:1028C00080E090E0811740F42191AB85BC85A80F92
:1028D000B91F2C930196F6CF1D8718821D82DF91B8
:1028E000CF911F910F91FF90EF90DF900895CF93BC
:1028F000DF93EC018B898F3F29F060E00E94CF02CB
:102900008FEF8B8B8C898F3F29F060E00E94CF0284
:102910008FEF8C8B1D8ADF91CF910895FF920F93DB
:102920001F93CF93DF93EC01162FF42E662329F02B
:102930008D898230C1F5613081F48B898F3FC1F080
:102940000E9477020197A1F460E08B890E94A002A7
:1029500001E08D89823019F501C000E01D7FF9F496
:102960008C898F3FE1F00E9477020197C1F402C089
:1029700000E0EFCF60E08C890E94A002FF2099F078
:102980008E89882319F080EB94E002C088EC90E0F7
:10299000DF91CF911F910F91FF900C942C04FF2099
:1029A00011F00111EDCFDF91CF911F910F91FF90A9
:1029B0000895CF92DF92EF92FF920F931F93CF93E0
:1029C000DF938C01C62FFC018689882329F0862F8E
:1029D0000E947702019749F161E08C2F0E94A002CA
:1029E0000E9436046B017C01F8018689882331F14D
:1029F0008789882319F1F894D0E0F8018789D817DE
:102A000090F481E090E00E942C0460E08C2F0E9402
:102A1000A00281E090E00E942C0461E08C2F0E94D3
:102A2000A002DF5FEACF789409C060E08C2F0E949B
:102A3000A00280EB94E00E942C04CECFC601DF916F
:102A4000CF911F910F91FF90EF90DF90CF9008955D
:102A5000DF92EF92FF920F931F93CF93DF93EC01DE
:102A6000162FD42E662331F08D89823009F04CC0A8
:102A7000613059F48B898F3F01F19E89911113C008
:102A80000E947702892B79F018C000E01D7FC1F504
:102A90008C898F3FA9F19E89911111C00E94770204
:102AA000892B69F02DC06B89CE010E94D9147C015D
:102AB00001E08D89823021F5E9CF00E0FACF6C8901
:102AC000CE010E94D9147C01DD20F1F08E8988238B
:102AD00061F00E9436046E197F096C327140A0F4D7
:102AE0008AE090E00E942C04F4CF88EC90E0DF9123
:102AF000CF911F910F91FF90EF90DF900C942C04D9
:102B0000DD2011F00111E2CFDF91CF911F910F91E4
:102B1000FF90EF90DF900895CF92DF92EF92FF92B7
:102B20001F93CF93DF936130E9F088F0623069F052
:102B30006330B9F541E060E0DF91CF911F91FF90E4
:102B4000EF90DF90CF900C948E1421E00CC041E008
:102B500060E0DF91CF911F91FF90EF90DF90CF90D9
:102B60000C94281522E0162FEC0140E0622F0E9401
:102B70008E140E9436046B017C0141E0612FCE016E
:102B80000E9428158E89882361F00E9436046C19F2
:102B90007D09603B744028F48AE090E00E942C0498
:102BA000F4CFDF91CF911F91FF90EF90DF90CF9006
:102BB00008954F925F926F927F929F92AF92BF92D1
:102BC000CF92DF92EF92FF920F931F93CF93DF93F9
:102BD000EC015B01142F022F8B859C85892B09F456
:102BE000B3C08A85813029F0823009F0ADC0842FCE
:102BF0006EC0D42E8D85D816F0F4ED2CF12C88897A
:102C00009989F701EE0FFF1FEA0DFB1D9183808369
:102C1000EB85FC85EE0DFF1D61E080810E94CF02F7
:102C20008B859C85FC01EE0DFF1D61E080810E947B
:102C3000A002D00EDFCF8AE090E00E942C04F8942E
:102C40000E9436042B013C01F12E8D85F81650F4BC
:102C5000EB85FC85EF0DF11D60E080810E94CF02C5
:102C6000F00EF3CF7894C12CD12C88899989C8169D
:102C7000D90608F069C0F8940E9436046B01C418A4
:102C8000D508912E8D859816C0F4E92CF12CEB8592
:102C9000FC85EE0DFF1D80810E947702892B59F47F
:102CA000EE0CFF1CF501EE0DFF1D80819181C81611
:102CB000D90608F446C0900EE5CF7894D6CFF5013A
:102CC000E80FF11DE80FF11D11821082800F9D8524
:102CD0008917A8F3C12C01C0C3948A89C816D0F4FF
:102CE000D12E8D85D816C0F7ED2CF12CEB85FC8507
:102CF000EE0DFF1D80810E945802EE0CFF1CF501B5
:102D0000EE0DFF1D20813181820F931F91838083FF
:102D1000D00EE7CF8D851817B8F4F501E10FF11D3E
:102D2000E10FF11D6A8970E09B013595279580813F
:102D30009181820F931F0E94862371836083100FFD
:102D4000E9CFD182C082B7CFDF91CF911F910F9190
:102D5000FF90EF90DF90CF90BF90AF909F907F90CB
:102D60006F905F904F900895CF92DF92FF920F93F4
:102D70001F93CF93DF93CDB7DEB7EE970FB6F894DE
:102D8000DEBF0FBECDBF8C016B01F42E42E04F15AC
:102D900040F051E0F51690F441E060E00E948E149E
:102DA00006C064E06F1530F575E0F7126DC021E0E4
:102DB00040E0B601C8010E94D91566C041E060E05C
:102DC0000E94281521E040E0B601C8010E94D915F3
:102DD00041E060E0C8010E948E1482E0F81222C037
:102DE00021E040E0BE016F5F7F4FC8010E94D9150E
:102DF00020E046C061E00E948C1522E040E0B60170
:102E0000C8010E94D91562E0C8010E948C1522E019
:102E100041E0B601C8010E94D91541E060E0C80157
:102E20000E948E14A4E0FA122FC0DACF822F90E015
:102E3000880F991FF601E80FF91F41E050E04C0F91
:102E40005D1F840F951FD80150964D915C9151974D
:102E5000DC018D919C91BA01681B790BCB014081FB
:102E60005181840F951F91838083D80150964D9195
:102E70005C9151974817590710F4518340832F5F95
:102E8000F8018585281790F2EE960FB6F894DEBF0C
:102E90000FBECDBFDF91CF911F910F91FF90DF90BB
:102EA000CF900895CF93DF93EC010E9477148B8528
:102EB0009C85009711F00E94B5218B819C81009721
:102EC00011F00E94B52188859985009711F00E9424
:102ED000B52189819A81009711F00E94B5218E81D8
:102EE0009F81009721F0DF91CF910C94B521DF9164
:102EF000CF9108958BE693E008958BE793E00895D2
:102F00008CE993E0089583EB93E00895FC0186A19A
:102F100097A108958CE993E0089583EB93E00895D9
:102F2000FC01E459FF4F6083319640830895FC0112
:102F3000E854FB4F20E030E041915191452B91F452
:102F4000AC0142595F4FF901EB5DFD4FEE0FFF1FE2
:102F5000E40FF51F918380832C593F4FFC0133838D
:102F6000228308952F5F3F4F2931310529F70895B6
:102F7000CF93DF93FC01DB01EC01C459DF4F888163
:102F8000882309F445C0813009F08FC0EF01C8598A
:102F9000DF4F56969C9156978881892780ABAF0169
:102FA000405C5F4F9F0127593F4F57969C91579721
:102FB000E90188818927EA018883405F5F4F2F5F9D
:102FC0003F4F58969C915897E90188818927EA01DB
:102FD0008883405F5F4F2F5F3F4F59969C91599771
:102FE000E90188818927EA01888352968C9152975A
:102FF00081AB53968C9153976F97888354968C919D
:1030000054976096888355968C91EF59FF4F4CC02A
:10301000EF01C859DF4F988156968C9156978927B2
:1030200080AB56962C91569781E02827922791AB3A
:103030002196988157962C915797292723AB57961D
:103040002C9157972827922794AB21969881AA977D
:1030500058962C91589729272883219658962C9179
:103060005897282792279883AA969881A8975996C7
:103070002C91599729272883219659962C91599755
:1030800082278927888352968C91529782AB5396D8
:103090008C91539785AB54968C9154972297888343
:1030A00055968C91EB5BFF4F8083DF91CF91089514
:1030B000EF92FF920F931F93CF93DF93FC01E4599C
:1030C000FF4F2081222359F0213009F04EC0EC013E
:1030D00000E010E07C01FDE6EF0EF11C2FC0EC01DA
:1030E00000E010E07C018DE6E80EF11C6096F7012F
:1030F000808190E008171907C0F568A1888D0E94AB
:10310000A00269A1898D0E94A0026AA170E08A8D47
:103110000E940B036BA18B8D0E94A0026CA18C8D71
:103120000E94A0026DA170E08D8D0E940B036EA124
:103130008E8D0E94A0020F5F1F4FD8CF6096F701BF
:10314000808190E00817190780F468A1888D0E949B
:10315000A00269A170E0898D0E940B036AA18A8D8B
:103160000E94A0020F5F1F4FE9CFDF91CF911F9107
:103170000F91FF90EF900895EF92FF920F931F939E
:10318000CF93DF938C01EB01FC01828188838381E3
:10319000898384818A8385818B8386818C838781DF
:1031A0008D8380858E8381858F83828588878385C3
:1031B000898784858A8785858B87A685B785FD0164
:1031C00001900020E9F731977F01EA1AFB0AA70175
:1031D00060E070E0CE010C960E947206F8016685F0
:1031E0007785A701CE0140960E942623C70140960D
:1031F000DF91CF911F910F91FF90EF9008950F9362
:103200001F93CF93DF93EC018B0102960E94BC18B1
:103210002A89F801E80FF91F20832B8921832C8943
:1032200022832D8923832E8924832F892583288D2A
:103230002683298D27830896DF91CF911F910F91C7
:1032400008954F925F926F927F928F929F92AF926A
:10325000BF92EF92FF920F931F93CF93DF9300D013
:103260001F92CDB7DEB77C018B01FB01808190E01E
:10327000A0E0B0E0F70182839383A483B583FB01D0
:103280002181922BF70182839383A483B583FB0171
:103290002281A22BF70182839383A483B583FB0150
:1032A0002381B22BF70182839383A483B583FB012F
:1032B000848190E0A0E0B0E0F70186839783A08747
:1032C000B187FB012581922BF70186839783A08725
:1032D000B187FB012681A22BF70186839783A08704
:1032E000B187FB012781B22BF70186839783A087E3
:1032F000B187FB01808590E0A0E0B0E0F701828714
:103300009387A487B587FB012185922BF7018287DC
:103310009387A487B587FB012285A22BF7018287BB
:103320009387A487B587FB012385B22BF70182879A
:103330009387A487B587645F7F4FCE0101960E9473
:103340002B0889819A81AB81BC814C015D01F0E140
:103350008F0E911CA11CB11CA801415F5F4FFA01A7
:1033600020E130E02901612C712C481459046A04D1
:103370007B0428F4618161932F5F3F4FF3CFF80105
:10338000E80FF91F1786F7015787468740960F9079
:103390000F900F900F90DF91CF911F910F91FF90A1
:1033A000EF90BF90AF909F908F907F906F905F90C5
:1033B0004F9008950F931F93CF93DF93EC018B01F0
:1033C00002960E942119F801E80FF91F20812A8B2B
:1033D00021812B8B22812C8B23812D8B24812E8B81
:1033E00025812F8B2681288F2781298F0896DF91B1
:1033F000CF911F910F9108950F931F93CF93DF9358
:10340000EC018C010A5F1F4FC8010E94DA194AA122
:103410005BA1E8A1F9A1CA01959587952CA13DA1D1
:1034200040FF0AC0D901A80FB91F4D915C91E40F6C
:10343000F51F0190F081E02DB801820F931FDF91FD
:10344000CF911F910F911994CF93DF9300D01F92CA
:103450001F92CDB7DEB721E233E03A8329836B8335
:103460005D834C83DC01ED91FC910190F081E02DB6
:10347000AE014F5F5F4F67E070E019950F900F90BE
:103480000F900F900F90DF91CF910895AB0161E005
:103490000C94241A0F931F93CF93DF93EC018AEDC2
:1034A00094E0998388838EEC94E09F838E8382ECF2
:1034B00094E0998788871A861B861C861D861E863F
:1034C0001F86188A198A1A8A1B8A1C8A1D8A8CEF01
:1034D00092E09F8B8E8B188E198E1A8E1B8E1C8EEF
:1034E0001D8E1E8E1F8E89E59CE199A388A31BA2C9
:1034F0001AA2DDA3CCA381E090E09FA38EA384ED6C
:1035000093E09D838C83FE01E859FF4F1082118266
:10351000128213823496108231961082CE01825923
:103520009F4F29E333E0DC012D933C93FB01228183
:103530003381FE01E059FF4F31832083DB01149674
:103540000D911D912D913C91179702831383248334
:10355000358318960D911D912D913C911B97FC017F
:1035600000871187228733871C960D911D912D911D
:103570003C911F97DC010487158726873787FB015D
:10358000008911892289338950960D931D932D93BB
:103590003C9353970489158926893789FC01048B4C
:1035A000158B268B378B20E032E0FB0178965896FE
:1035B00001900D9221503040D9F7DE01AA57BD4F3E
:1035C000FB01E85EFD4F20E032E001900D922150BA
:1035D0003040D9F7DE01AA57BB4FFB01E85EFB4F35
:1035E00022E301900D922A95E1F7DE01A854BB4F2A
:1035F000FB01E65BFB4F22E301900D922A95E1F778
:10360000FB01E458FB4F20813181FE01E651FB4F65
:1036100031832083FB01E258FB4F20813181FE0181
:10362000E451FB4F31832083FB01E058FB4F2081A5
:103630003181FE01E251FB4F31832083FB01EE57C4
:10364000FB4F20813181FE01E051FB4F318320830C
:10365000FB01EC57FB4F20813181FE01EE50FB4F07
:1036600031832083FB01EA57FB4F2081FE01EC50A0
:10367000FB4F2083FB01E957FB4F00811181228121
:103680003381FE01EB50FB4F008311832283338390
:10369000FB01E557FB4F0081118122813381FE013F
:1036A000E750FB4F0083118322833383FB01E157F3
:1036B000FB4F0081118122813381FE01E350FB4FDA
:1036C0000083118322833383FB01ED56FB4F20815E
:1036D000FE01EF5FFA4F2083CE5FDA4F2DE233E039
:1036E00039832883FB01EC56FB4F4281538164816F
:1036F00075814A835B836C837D83468157816085B6
:1037000071854E835F8368877987228533853B8700
:103710002A8744855585668577854C875D876E87C2
:103720007F874089518962897389488B598B6A8B5D
:103730007B8B248935893D8B2C8B46895789608DFD
:10374000718D4E8B5F8B688F798F228D338D3B8F80
:103750002A8F248D358D3D8F2C8F61EE73E0DF91A4
:10376000CF911F910F910C94461A6DEF73E082591F
:103770009F4F0C94461A7F928F929F92AF92BF9266
:10378000CF92DF92EF92FF920F931F93CF93DF932D
:103790006C01C62F742E122F5C018EE6A80EB11C90
:1037A00061EA74E0C5010E94461AD0E07E0184E01F
:1037B000EE0CFF1C8A95E1F746018E0C9F1CF4016C
:1037C00070A611A702A766E674E0C5010E94461A1A
:1037D000239694E0CC0FDD1F9A95E1F7CC0DDD1D0B
:1037E0001882F40111AA81E082AB66E874E0C50199
:1037F0000E94461AF8E2EF0EF11CE601CE0DDF1D25
:10380000E12CF12C61E089910E94CF028FEFE81A40
:10381000F80AE3E0EE16F104A9F7DF91CF911F91CA
:103820000F91FF90EF90DF90CF90BF90AF909F905F
:103830008F907F9008950F931F93CF93DF93CDB711
:10384000DEB768970FB6F894DEBF0FBECDBF8C0110
:10385000FC0190A981A9992329F090E09195819587
:10386000910901C090E04AE0BE016F5E7F4F0E9467
:1038700041236AEB74E0CE0101960E943A23BE0117
:103880006F5E7F4FCE0101960E942F23BE016F5FB6
:103890007F4FC80182599F4F0E94461A68960FB603
:1038A000F894DEBF0FBECDBFDF91CF911F910F9176
:1038B00008950F931F93CF93DF93EC018B010E9428
:1038C000B817B801CE010E945818B801CE01DF9197
:1038D000CF911F910F910C941B1C82EE94E00895E0
:1038E0008FEF94E008958F929F92AF92BF92CF9204
:1038F000DF92EF92FF920F931F93CF93DF93EC0130
:103900008B018A81FB0180838B8181838C818283FF
:103910008D818383C12CD12C812C912C540184E086
:10392000E82EF12C4A815B816C817D81D801AE0D3E
:10393000BF1D84169506A606B706C0F48A899B8922
:103940008C0D9D1DFC0120813181F9012081318187
:10395000BD01F9011995E80EF91EFFEF8F1A9F0AB4
:10396000AF0ABF0A8CE0C80ED11CDCCF8C898C93C7
:103970008D8911968C9311978E8912968C9312973C
:103980008F8913968C93C7010496DF91CF911F9175
:103990000F91FF90EF90DF90CF90BF90AF909F90EE
:1039A0008F90089580E295E008958AE395E0089568
:1039B000EF92FF920F931F93CF93DF93EC018B0154
:1039C00002960E94731CF801E80FF91F2A8D2083CC
:1039D0002B8D21832C8D22832D8D238304967F01B3
:1039E00040E050E0BA010A8D1B8D2C8D3D8D4017B3
:1039F000510762077307F8F497012E1B3F0B08A1CC
:103A000019A1020F131FD8011C91D70114961C9302
:103A100008A119A1200F311FD90111962C91D701AE
:103A200015962C9302964F5F5F4F6F4F7F4FB2E01A
:103A3000EB0EF11CD8CFDF91CF911F910F91FF902A
:103A4000EF9008958BE595E0089585E795E008955A
:103A5000CF93DF93EC018BEB95E0998388838FEA1A
:103A600095E09B838A831C821D821E821F8283EACB
:103A700095E0998788878CEF92E09B878A871C86E0
:103A80001D861E861F86188A198A1A8A1B8A1D8A15
:103A90001C8A1E8A1F8A188E198E1A8E1B8E1C8EE7
:103AA0001D8E1F8E1E8E19A218A289E393E09BA380
:103AB0008AA3FB01828193819DA38CA3848195813C
:103AC000A681B7818EA39FA3A8A7B9A7808591855A
:103AD000A285B3858AA79BA7ACA7BDA7848595853A
:103AE000A685B7858EA79FA7A8ABB9AB808991891A
:103AF000A289B3898AAB9BABACABBDAB84899589FA
:103B0000A689B7898EAB9FABA8AFB9AF80E092E032
:103B10007896DE01DA9601900D920197E1F7DE01C9
:103B2000A65CBD4FFB01E85EFD4F80E092E0019096
:103B30000D920197E1F7DE01A65CBB4FFB01E85E49
:103B4000FB4F82E301900D928A95E1F7DE01A459C3
:103B5000BB4FFB01E65BFB4F82E301900D928A9520
:103B6000E1F7FB01E458FB4F80819181FE01E256B1
:103B7000FB4F91838083FB01E258FB4F8081918151
:103B8000FE01E056FB4F91838083FB01E058FB4F21
:103B900080819181FE01EE55FB4F91838083FB0173
:103BA000EE57FB4F80819181FE01EC55FB4F9183D5
:103BB0008083FB01EC57FB4F80819181FE01EA5528
:103BC000FB4F91838083FB01EA57FB4F8081FE010D
:103BD000E855FB4F8083FB01E957FB4F80819181C2
:103BE000A281B381FE01E755FB4F80839183A283BD
:103BF000B383FB01E557FB4F80819181A281B381A3
:103C0000FE01E355FB4F80839183A283B383FB01C5
:103C1000E157FB4F80819181A281B381FE01EF5476
:103C2000FB4F80839183A283B383FB01ED56FB4F4F
:103C30008081FE01EB54FB4F8083DE01AA54BB4F11
:103C40008DE293E011969C938E93FB01EC56FB4F13
:103C5000428153816481758112964D935D936D937A
:103C60007C931597468157816085718516964D9393
:103C70005D936D937C931997828593851B969C9396
:103C80008E931A9744855585668577851C964D9346
:103C90005D936D937C931F974089518962897389E5
:103CA00050964D935D936D937C935397848995893A
:103CB00055969C938E93549746895789608D718D44
:103CC00056964D935D936D937C935997828D938D0A
:103CD0005B969C938E935A97848D958D5D969C935D
:103CE0008E935C97FE01EC51FB4F10821282118281
:103CF00014821382D3961C9212961C921E921197D4
:103D000014961C921E92139712861486138615869B
:103D100084EC99E097878687918B808B84E0828BF7
:103D20008FEF838B848B158A81E0868B178A118EA7
:103D3000108E7A9686E995E091838083D383C2833F
:103D400011861086DF91CF910895CF93DF93EC0118
:103D500088E090E0A0E0B0E08A8F9B8FAC8FBD8FB1
:103D600080E190E00E941D2199A388A3CE018C518F
:103D70009B4FDF91CF910C943314EF92FF920F93EE
:103D80001F93CF93DF938C01EC01CC52DB4F7C016E
:103D90008CE1E81A8BEFF80A41E0BE01C7010E94EE
:103DA000B416FE01E801A8A1B9A1819191918D936A
:103DB0009D93EE15FF05C9F7F801E250FB4F868190
:103DC000978164817581DC01ED91FC910190F08116
:103DD000E02DA801DF91CF911F910F91FF90EF90FF
:103DE0001994EF92FF920F931F93CF93DF93EC01FF
:103DF0008B01AA81BB81FD0101900020E9F7319779
:103E00007F01EA1AFB0AA70160E070E0C8010E9486
:103E100072066A817B81A701C80104960E9426234D
:103E2000F801EE0DFF1D8C8184838D8185838E8149
:103E300086838F81878388858087898581878A8526
:103E400082878B858387C7010C96DF91CF911F9165
:103E50000F91FF90EF9008954F925F926F927F9233
:103E60008F929F92AF92BF92EF92FF920F931F9308
:103E7000CF93DF9300D01F92CDB7DEB78C017B01CB
:103E8000CE0101960E942B0889819A81AB81BC8169
:103E90004C015D0124E0820E911CA11CB11CA70104
:103EA0004D5F5F4FFA0124E030E02901612C712C55
:103EB000481459046A047B0428F4618161932F5FDC
:103EC0003F4FF3CFE80EF91EF7011382F801538339
:103ED0004283F701448150E060E070E0F8014483E0
:103EE000558366837783F7012581522BF80144833C
:103EF000558366837783F7012681622BF80144831B
:103F0000558366837783F7012781722BF8014483F9
:103F1000558366837783F701408550E060E070E069
:103F2000F8014087518762877387F7012185522BFB
:103F3000F8014087518762877387F7012285622BDA
:103F4000F8014087518762877387F7012385722BB9
:103F5000F80140875187628773870C960F900F9006
:103F60000F900F90DF91CF911F910F91FF90EF90E5
:103F7000BF90AF909F908F907F906F905F904F9089
:103F800008954F925F926F927F92AF92BF92CF92BD
:103F9000DF92EF92FF920F931F93CF93DF93EC0189
:103FA0005B01FB01C080D180E280F3808A819B812C
:103FB000AC81BD818C159D05AE05BF0560F48CE01C
:103FC0008C9DB0018D9D700D11248A899B890E9462
:103FD0003E229B8B8A8BCA82DB82EC82FD82E12CA3
:103FE000F12C412C512C320104E010E06E01F6E07E
:103FF000CF0ED11C8A819B81AC81BD81F501E00F80
:10400000F11F481659066A067B06C8F4BF01C601AF
:104010000E942C1F080F191FAA89BB89AE0DBF1D56
:104020008CE0F60101900D928A95E1F78FEF481A26
:10403000580A680A780AECE0EE0EF11CDBCF8081AA
:1040400090E0A0E0B0E08C8B9D8BAE8BBF8B21818C
:10405000922B8C8B9D8BAE8BBF8B2281A22B8C8B5A
:104060009D8BAE8BBF8B2381B22B8C8B9D8BAE8BAC
:10407000BF8BC8010496DF91CF911F910F91FF90E4
:10408000EF90DF90CF90BF90AF907F906F905F9058
:104090004F9008958F929F92AF92BF92CF92DF92EE
:1040A000EF92FF920F931F93CF93DF93EC018B015D
:1040B00002960E94C11F080F191FD8012C9111965A
:1040C0003C9111971296CC901297D12CE12CF12CA7
:1040D0007601DD24CC24D32AC22A13962C91F22A0D
:1040E0005C01B4E0AB0EB11C8A8D9B8DAC8DBD8D97
:1040F0008C159D05AE05BF0548F4B601660F771F08
:1041000088A199A10E943E2299A388A3CA8EDB8E22
:10411000EC8EFD8EF80140E050E0BA014E012EE138
:10412000820E911CCA8CDB8CEC8CFD8C4C155D05D1
:104130006E057F05F0F4848190E09F8F8E8F25813E
:10414000922B9F8F8E8F82E0A80EB11CCF01801B17
:10415000910B28A139A1820F931FD4012D913C917D
:10416000DC012D933C934F5F5F4F6F4F7F4F329633
:10417000D9CFC501DF91CF911F910F91FF90EF90A3
:10418000DF90CF90BF90AF909F908F900895CF9287
:10419000DF92EF92FF920F931F93CF93DF938C01E7
:1041A000EB01688179818A819B8120E03AEC4AE9C0
:1041B0005BE30E94AE23F801C080D180E280F380EF
:1041C000C20ED31EE41EF51EC082D182E282F382AB
:1041D000688379838A839B83DF91CF911F910F91AD
:1041E000FF90EF90DF90CF900895CF92DF92EF9203
:1041F000FF920F931F93CF93DF936C01EB017B0131
:10420000E40EF51E00E010E0CE15DF0561F06991C7
:10421000D601ED91FC910190F081E02DC601199538
:10422000080F191FF1CFC801DF91CF911F910F9196
:10423000FF90EF90DF90CF9008950F931F93CF934F
:10424000DF938230910510F482E090E0E091511705
:10425000F091521720E030E0A0E0B0E0309719F183
:10426000408151810281138148175907C8F0841792
:10427000950769F4109731F012960C9312971396E4
:104280001C9327C0009351171093521722C0211579
:10429000310519F04217530718F49A01BD01EF01D7
:1042A000DF01F801DBCF21153105F9F0281B390BAF
:1042B0002430310580F48A819B816115710521F0DC
:1042C000FB019383828304C090935217809351170C
:1042D000FE01329644C0FE01E20FF31F81939193D9
:1042E00022503109398328833AC020914F173091E9
:1042F0005017232B41F42091020230910302309396
:10430000501720934F172091000230910102211580
:10431000310541F42DB73EB740910402509105029A
:10432000241B350BE0914F17F0915017E217F3075C
:10433000A0F42E1B3F0B2817390778F0AC014E5F15
:104340005F4F2417350748F04E0F5F1F50935017EB
:1043500040934F178193919302C0E0E0F0E0CF01CA
:10436000DF91CF911F910F910895CF93DF93009725
:1043700009F481C0FC01329713821282A091511777
:10438000B0915217109781F420813181820F931FD1
:1043900020914F17309150172817390751F5F09396
:1043A0005017E0934F1767C0ED0120E030E0CE17C3
:1043B000DF0740F44A815B819E0141155105F1F010
:1043C000EA01F5CFD383C28340815181840F951FC9
:1043D000C817D90759F488819981840F951F0296CF
:1043E000918380838A819B81938382832115310508
:1043F00029F4F0935217E09351173DC0E901FB8374
:10440000EA8349915991C40FD51FEC17FD0761F458
:1044100080819181840F951F0296E9019983888399
:10442000828193819B838A83E0E0F0E012968D91F4
:104430009C911397009719F0FD01DC01F7CF8D9146
:104440009C9111979D012E5F3F4F820F931F2091EA
:104450004F17309150172817390769F4309729F40E
:10446000109252171092511702C013821282B09309
:104470005017A0934F17DF91CF9108956F927F92BD
:104480008F929F92AF92BF92CF92DF92EF92FF9264
:104490000F931F93CF93DF93009789F4CB01DF91A4
:1044A000CF911F910F91FF90EF90DF90CF90BF9031
:1044B000AF909F908F907F906F900C941D21FC0186
:1044C000E60FF71F9C0122503109E217F30708F4A9
:1044D000A9C0EC01D9010D911C911197061717077E
:1044E000B0F00530110508F49BC0C8010497861789
:1044F000970708F495C002501109061B170B01938A
:1045000011936D937C93CF010E94B52189C05B010B
:10451000A01AB10A4C01800E911EA0915117B091C2
:104520005217612C712CE12CF12C109709F446C024
:104530008D919C911197A815B905B1F56C0142E0D8
:10454000C40ED11CCA14DB0478F14C018A189B08F4
:10455000640142E0C40ED11C1296BC9012971396CF
:10456000AC91B5E0CB16D10440F0B282A383918226
:104570008082D9016D937C9309C00E5F1F4F800F1D
:10458000911FF90191838083EB2DFA2FE114F1043F
:1045900031F0D7011396FC93EE93129741C0F0933C
:1045A0005217E09351173CC06816790608F43C0195
:1045B0007D0112960D90BC91A02DB7CF80914F1721
:1045C0009091501788169906E1F466167706C8F49C
:1045D0008091000290910102009741F48DB79EB73F
:1045E0004091040250910502841B950BE817F907CE
:1045F000C8F4F0935017E0934F17F901718360836B
:104600000FC0CB010E941D217C01009759F0A80129
:10461000BE010E942623CE010E94B521C70104C01D
:10462000CE0102C080E090E0DF91CF911F910F9109
:10463000FF90EF90DF90CF90BF90AF909F908F90C2
:104640007F906F900895F8940C94F223FB01DC01A5
:1046500002C001900D9241505040D8F70895FB01DF
:10466000DC010D900020E9F7119701900D920020D8
:10467000E1F70895FB01DC0101900D920020E1F7C4
:104680000895BB274A3031F4992322F4BDE2909576
:1046900081959F4F0C944D23BB27FB015527AA27DB
:1046A000880F991FAA1FA41710F0A41B83955051BF
:1046B000B9F7A05DAA3308F0A95DA193009779F737
:1046C000B111B1931192CB010C946623DC01FC0172
:1046D000672F71917723E1F7329704C07C916D9336
:1046E00070836291AE17BF07C8F30895DB018F9303
:1046F0009F930E94D023BF91AF91A29F800D911DE7
:10470000A39F900DB29F900D11240895AA1BBB1B6F
:1047100051E107C0AA1FBB1FA617B70710F0A61BC1
:10472000B70B881F991F5A95A9F780959095BC01E2
:10473000CD01089597FB072E16F4009407D077FD5E
:1047400009D00E94862307FC05D03EF49095819500
:104750009F4F0895709561957F4F0895A1E21A2E9D
:10476000AA1BBB1BFD010DC0AA1FBB1FEE1FFF1F15
:10477000A217B307E407F50720F0A21BB30BE40B65
:10478000F50B661F771F881F991F1A9469F76095AC
:104790007095809590959B01AC01BD01CF01089566
:1047A0000E94E323A59F900DB49F900DA49F800DC0
:1047B000911D11240895EE0FFF1F881F8BBF0790D6
:1047C000F691E02D1994A29FB001B39FC001A39F61
:1047D000700D811D1124911DB29F700D811D11243A
:1047E000911D089511E0C2EDD1E000E006C0802FD8
:1047F000FE010E94DB232196011DC33DD10780E00D
:084800000807A9F7F894FFCFA7
:104808000000531720007374645F6D7367732F542F
:10481800696D65006364373136366337346335351F
:10482800326333313166626363326665356137629C
:104838006332383900726F7373657269616C5F6DCA
:104848007367732F546F706963496E666F003061C8
:1048580064353166383866633434383932663863DB
:1048680031303638343037373634363030350072F8
:104878006F7373657269616C5F6D7367732F4C6FCB
:10488800670031316162643733316332353933332C
:1048980032363163643631383362643132643632E9
:1048A80039350039663065393862646136353938EA
:1048B800313938366464663533616661376134305E
:1048C800653439004D6573736167652066726F6D75
:1048D800206465766963652064726F707065643AF8
:1048E800206D657373616765206C617267657220FE
:1048F8007468616E206275666665722E001F2123DA
:10490800251E20222400000000D704FB0441054492
:1049180005000000009A07AF0847054A0500000097
:1049280000680759084D055005000000008F069DD6
:104938000953055605000000005E052F0D59057244
:104948006F7373657269616C5F6D7367732F5265FE
:104958007175657374506172616D00000000009498
:1049680010F5203D1069104D1089107374645F6D47
:104978007367732F48656164657200323137366436
:1049880065636165636263653738616263336239A1
:1049980036656630343966616265640077686565D6
:1049A8006C5F636F6E74726F6C6C65722F6D6F7471
:1049B8006F72003335613536626232653865373378
:1049C8006366383130616634303963643430373285
:1049D800623639002F776865656C2F6D6F746F725A
:1049E800004D6F746F72436F6E74726F6C6C65728A
:1049F80020436F6E7374727563746564004D6F74D1
:104A08006F72436F6E74726F6C6C6572204465735D
:104A1800747275637465640053657474696E672095
:104A28006D6F746F72206472697665722070696E3A
:104A38002C20412070696E206973206C6566742093
:104A48006D6F746F722C20422070696E206973201C
:104A58007269676874206D6F746F72206279207054
:104A6800726573657400496E697469616C697A6905
:104A78006E67206D6F746F7220647269766572203C
:104A880076616C756500496E697469616C697A69EB
:104A98006E67206D6F746F722070696E6D6F6465DC
:104AA8000053657474696E67206D6F746F7220644B
:104AB80072697665722070696E00464C3A00000093
:104AC8000000BC1821197A177D1700000000FF1894
:104AD800DA198017831700000000FC1986178A1757
:104AE8008D177374645F6D7367732F4D756C74697C
:104AF800417272617944696D656E73696F6E0034D5
:104B080063643063383361383638336465616534DB
:104B180030656364616336306535336266613800D9
:104B28007374645F6D7367732F4D756C746941722C
:104B38007261794C61796F757400306665643261B1
:104B4800313163313365313163353537316234653D
:104B580032613939356139316133007374645F6D9D
:104B68007367732F55496E7431364D756C7469418E
:104B7800727261790035326632363466316339379C
:104B880033633462373337393064333834633663E8
:104B98006234343834002F7075625F7174720000AB
:104BA800000000F11E2C1F6D1C701C00000000731B
:104BB8001CC11FD21CD51C00000000D81C4A202292
:044BC8001D251D008A
:00000001FF
